:100000000C9434000C943E000C943E000C943E0082
:100010000C943E000C943E000C943E000C943E0068
:100020000C943E000C943E000C943E000C943E0058
:100030000C943E000C943E000C943E000C943E0048
:100040000C943E000C943E000C9489000C943E00ED
:100050000C943E000C94B0000C943E000C943E00B6
:100060000C943E000C943E0011241FBECFEFD8E04C
:10007000DEBFCDBF0E9479000C94DC000C94000020
:10008000ECE7F0E010828081806480838081806270
:100090008083EAE7F0E01082808183608083808142
:1000A0008860808380818068808380818064808391
:1000B00008958AB182608AB98AB18E7F8AB9109216
:1000C000C000E1ECF0E080818869808386E0809365
:1000D000C20087E690E09093C5008093C400089525
:1000E000F8948FEF84B90E9440000E9459007894E0
:1000F00008950E9470007894FFCF9091C00095FF02
:10010000FCCF811101C065B9813011F46093C60044
:1001100008951F920F920FB60F9211242F933F93C1
:100120004F935F936F937F938F939F93AF93BF93FF
:10013000EF93FF936091C60080E00E947D00FF91E5
:10014000EF91BF91AF919F918F917F916F915F914F
:100150004F913F912F910F900FBE0F901F901895C8
:100160001F920F920FB60F9211242F933F934F932C
:100170005F936F937F938F939F93AF93BF93EF930F
:10018000FF936091790081E00E947D00EAE7F0E052
:10019000808180648083FF91EF91BF91AF919F91A7
:1001A0008F917F916F915F914F913F912F910F9020
:0C01B0000FBE0F901F901895F894FFCF21
:00000001FF
