:100000000C9434000C9451000C9451000C94510049
:100010000C9451000C9451000C9451000C9451001C
:100020000C9451000C9451000C9451000C9451000C
:100030000C9451000C9451000C9451000C945100FC
:100040000C9451000C9451000C949A000C945100A3
:100050000C9451000C9451000C9451000C945100DC
:100060000C9451000C94510011241FBECFEFD8E026
:10007000DEBFCDBF11E0A0E0B1E0E6E5F1E002C0F7
:1000800005900D92A030B107D9F721E0A0E0B1E0D2
:1000900001C01D92A230B207E1F70E948F000C94BC
:1000A000A9000C94000080E480937C0086E8809393
:1000B0007A0008958AB182608AB98AB18E7F8AB93E
:1000C0001092C000E1ECF0E080818869808386E0D6
:1000D0008093C20087E690E09093C5008093C400AF
:1000E0000895F8948FEF84B90E9453000E945A003B
:1000F00078940895ECE7F0E09081907F8F70892BE1
:100100008083EAE7F0E080818064808380917A00D8
:1001100086FDFCCF809178009091790008950E942F
:100120007100789485E00E947A0090930101809399
:100130000001F8CF1F920F920FB60F9211248F93E8
:100140008091C60085B98F910F900FBE0F901F90C0
:060150001895F894FFCFA2
:00000001FF
